:100000000C945D000C9485000C9485000C94850084
:100010000C9485000C9485000C9485000C9485004C
:100020000C9485000C9485000C9485000C9485003C
:100030000C9485000C9485000C9485000C9485002C
:100040000C9429050C9485000C94F7040C94D104AD
:100050000C9485000C9485000C9485000C9485000C
:100060000C9473050C948500000000080002010048
:100070000003040700000000000000000000000072
:10008000250028002B0000000000240027002A0083
:10009000040404040404040402020202020203032E
:1000A0000303030301020408102040800102040836
:1000B0001020010204081020920611241FBECFEF69
:1000C000D8E0DEBFCDBF11E0A0E0B1E0E6ECF1E1A9
:1000D00002C005900D92AA35B107D9F722E0AAE532
:1000E000B1E001C01D92A83DB207E1F710E0CDE5F7
:1000F000D0E004C02197FE010E94DB08CC35D10777
:10010000C9F70E94E8060C94E1080C94000090E006
:10011000FC01EC55FF4F249180579F4FFC018491C7
:10012000882399F090E0880F991FFC01EA57FF4F50
:10013000A591B491FC01E458FF4F859194918FB73C
:10014000F894EC91E22BEC938FBF08958091160206
:1001500090911502891B990B089508950895AF9207
:10016000BF92CF92DF92EF92FF920F931F93CF93A4
:10017000DF936C017B018B01040F151FEB015E0106
:10018000AE18BF08C017D10759F06991D601ED919B
:10019000FC910190F081E02DC6010995892B79F73A
:1001A000C501DF91CF911F910F91FF90EF90DF90EC
:1001B000CF90BF90AF900895FC01538D448D252FB3
:1001C00030E0842F90E0821B930B541710F0CF96F1
:1001D000089501970895FC01918D828D981761F023
:1001E000A28DAE0FBF2FB11D5D968C91928D9F5F3A
:1001F0009F73928F90E008958FEF9FEF0895FC0119
:10020000918D828D981731F0828DE80FF11D858DCB
:1002100090E008958FEF9FEF0895FC01918D228D5E
:10022000892F90E0805C9F4F821B91098F739927E3
:10023000089587E192E00E940D0121E0892B09F4E5
:1002400020E0822F089580E090E0892B29F00E9421
:10025000190181110C9400000895FC01A48DA80FD0
:10026000B92FB11DA35ABF4F2C91848D90E00196F8
:100270008F739927848FA689B7892C93A089B18918
:100280008C91837080648C93938D848D981306C0B9
:100290000288F389E02D80818F7D80830895EF921D
:1002A000FF920F931F93CF93DF93EC0181E0888F30
:1002B0009B8D8C8D98131AC0E889F989808185FF00
:1002C00015C09FB7F894EE89FF896083E889F989A2
:1002D00080818370806480839FBF81E090E0DF91A4
:1002E000CF911F910F91FF90EF900895F62E0B8DF7
:1002F00010E00F5F1F4F0F731127E02E8C8D8E11B2
:100300000CC00FB607FCFACFE889F989808185FF18
:10031000F5CFCE010E942D01F1CFEB8DEC0FFD2F1B
:10032000F11DE35AFF4FF0829FB7F8940B8FEA89D3
:10033000FB8980818062CFCFCF93DF93EC01888DE2
:100340008823B9F0AA89BB89E889F9898C9185FD50
:1003500003C0808186FD0DC00FB607FCF7CF8C91DE
:1003600085FFF2CF808185FFEDCFCE010E942D0168
:10037000E9CFDF91CF91089590E0FC01E859FF4F5C
:100380002491FC01EC55FF4F3491FC01E057FF4FE5
:10039000E491EE23C9F0222339F0233001F1A8F4CF
:1003A000213019F1223029F1F0E0EE0FFF1FE4585F
:1003B000FF4FA591B4918FB7F894EC91611126C0CD
:1003C00030953E233C938FBF08952730A9F0283005
:1003D000C9F0243049F7809180008F7D03C080915F
:1003E00080008F7780938000DFCF84B58F7784BDC6
:1003F000DBCF84B58F7DFBCF8091B0008F7780936A
:10040000B000D2CF8091B0008F7DF9CF3E2BDACFF4
:100410003FB7F8948091A2019091A301A091A4010B
:10042000B091A50126B5A89B05C02F3F19F00196F4
:10043000A11DB11D3FBFBA2FA92F982F8827BC013E
:10044000CD01620F711D811D911D42E0660F771F66
:10045000881F991F4A95D1F70895089585ED8093D7
:10046000BC008091BC0084FDFCCF1092F401089583
:1004700020917A01260F3327331F21323105ECF406
:100480002091F401FC0190E080E0243069F082E0EA
:100490000895A0917A012191AC01465A5E4FA40FB4
:1004A000B52FB11D2C930196861798F380917A0190
:1004B000680F60937A0180E0089581E008950895BF
:1004C000E091150280911602E81730F4F0E0EB504D
:1004D000FE4F808190E008958FEF9FEF08959091F7
:1004E0001502809116022FEF3FEF981748F4E92F7D
:1004F000F0E0EB50FE4F208130E09F5F90931502BB
:10050000C9010895CF92DF92EF92FF920F931F934C
:10051000CF93DF937C01CB018A012091AA01222392
:1005200089F0EB016B01C40ED51ECC15DD0569F019
:100530006991D701ED91FC910190F081E02DC70107
:100540000995F3CF642F0E943802C801DF91CF9143
:100550001F910F91FF90EF90DF90CF900895CF9370
:10056000DF931F92CDB7DEB769832091AA012223C2
:10057000F9F02091CD01203258F021E030E0FC016B
:100580003383228390E080E00F90DF91CF91089534
:100590008091AB01E82FF0E0E455FE4F9981908304
:1005A0008F5F8093AB018093CD0181E090E0ECCF31
:1005B00061E0CE0101960E943802F7CF90E080E022
:1005C0000895CF93DF93EC0160E08E810E94BC011F
:1005D00061E08E810E94BC0160E08E810E94BC01BE
:1005E0008BE891E00197F1F7DF91CF910895CF92D9
:1005F000DF92EF92FF920F931F93CF93DF936C01E3
:100600007C0187E0E80EF11CD0E0C0E0062F10E08E
:10061000B8010C2E02C0759567950A94E2F76170D7
:10062000F70181917F010E94BC012196C430D10560
:1006300079F7C601DF91CF911F910F91FF90EF9055
:10064000DF90CF900C94E102CF92DF92EF92FF9275
:100650000F931F93CF93DF93EC01F62E642F8C81C1
:100660000E94BC018D818F3F19F060E00E94BC01A7
:100670000F2D10E08F8584FF25C06E0187E0C80E26
:10068000D11CF12CE12CB8010E2C02C07595679598
:100690000A94E2F76170F60181916F010E94BC013A
:1006A000FFEFEF1AFF0A88E0E816F10461F7CE01C8
:1006B000DF91CF911F910F91FF90EF90DF90CF903E
:1006C0000C94E102B80184E0759567958A95E1F78D
:1006D000CE010E94F7026F2DCE01DF91CF911F91C5
:1006E0000F91FF90EF90DF90CF900C94F70240E0D5
:1006F000682F80EC92E00C94240381E00E94770341
:100700008BE39FE10197F1F70895CF93DF93823058
:1007100029F49091CF0298609093CF028093D302F6
:100720001092D40280E48093D50280E18093D602B7
:1007300080E58093D7028091C4020E948700809157
:10074000C5028F3F11F00E9487008091C6020E946F
:100750008700C0ECD2E09E01205C32408091CF0245
:1007600084FD0AC084E090E02196281739073CF404
:100770008E810E948700EFCF88E090E0F5CF8BE379
:100780009DE00197F1F760E08091C4020E94BC01F6
:1007900060E08091C6020E94BC018091C5028F3F3B
:1007A00019F060E00E94BC018091CF0284FD34C04A
:1007B00063E080EC92E00E94F702CBE4D6E4CE0145
:1007C0000197F1F763E080EC92E00E94F702219735
:1007D000F1F763E080EC92E00E94F70283E592E09B
:1007E0000197F1F762E080EC92E00E94F7028091BD
:1007F000CF0280620E94770384E08093D0028CE075
:100800000E9477030E947D0382E08093D10286E0FC
:10081000DF91CF910C94770380620E9477038BE481
:1008200096E40197F1F78091CF0280620E947703EE
:1008300083E592E00197F1F78091CF0280620E94F8
:100840007703D5CF9091D302691710F06FEF690F3E
:10085000E62FF0E0E054FD4F9489890F80680C94F6
:10086000770341E00E94240381E090E00895FB01BA
:1008700001900020E9F73197AF01461B570BDC01CF
:10088000ED91FC910280F381E02D09944F925F92EB
:100890006F927F928F929F92AF92BF92CF92DF9290
:1008A000EF92FF920F931F93CF93DF93CDB7DEB7F5
:1008B000A1970FB6F894DEBF0FBECDBF8C016B01C0
:1008C000770FEE08FF08F7FE49C0DC01ED91FC91BF
:1008D0000190F081E02D6DE209955C01222733271C
:1008E000A9012C193D094E095F0919A2FE01B19613
:1008F0007F019AE0492E512C612C712CCA01B9015B
:10090000A30192010E94B908605DD7016E937D0139
:10091000211531054105510589F790E080E01097D8
:1009200021F0BD01C8010E9437048A0D9B1DA196CC
:100930000FB6F894DEBF0FBECDBFDF91CF911F91F0
:100940000F91FF90EF90DF90CF90BF90AF909F906E
:100950008F907F906F905F904F900895A7019601C0
:1009600019A2FE01B1967F018AE0882E912CA12C5C
:10097000B12CCA01B901A50194010E94B908605DBA
:10098000D7016E937D01211531054105510589F788
:1009900090E080E0109759F2BD01C8010E94370431
:1009A000C6CF1F920F920FB60F9211242F933F9331
:1009B0004F935F936F937F938F939F93AF93BF9367
:1009C000EF93FF9387E192E00E942D01FF91EF9159
:1009D000BF91AF919F918F917F916F915F914F9157
:1009E0003F912F910F900FBE0F901F9018951F925F
:1009F0000F920FB60F9211242F938F939F93EF9323
:100A0000FF93E0912702F09128028081E0912D026E
:100A1000F0912E0282FD1BC09081809130028F5F89
:100A20008F7320913102821741F0E0913002F0E0A3
:100A3000E95EFD4F958F80933002FF91EF919F917A
:100A40008F912F910F900FBE0F901F90189580815E
:100A5000F4CF1F920F920FB60F9211242F933F9352
:100A60008F939F93AF93BF9380919E0190919F012D
:100A7000A091A001B091A10130919D0123E0230F2D
:100A80002D3758F50196A11DB11D20939D0180932E
:100A90009E0190939F01A093A001B093A10180912A
:100AA000A2019091A301A091A401B091A50101968A
:100AB000A11DB11D8093A2019093A301A093A40155
:100AC000B093A501BF91AF919F918F913F912F91CD
:100AD0000F900FBE0F901F90189526E8230F0296D7
:100AE000A11DB11DD2CF1F920F920FB60F921124EC
:100AF0002F933F934F935F936F937F938F939F9326
:100B0000AF93BF93EF93FF938091B900887F8036B6
:100B100009F44AC0F0F5883209F4A7C018F580310D
:100B200009F49BC0B8F4882309F4F9C0883009F4AB
:100B300094C0FF91EF91BF91AF919F918F917F9161
:100B40006F915F914F913F912F910F900FBE0F903A
:100B50001F901895883109F488C0803251F780932E
:100B6000F20114C0803409F49DC040F48033B9F31D
:100B70008833F9F68093F20185ECB0C0803509F432
:100B800085C0883509F496C0883499F60E942E02F3
:100B9000D0CF883909F48CC038F5883729F050F463
:100BA000883611F0803729F683E08093F4011092A3
:100BB0009C0157C0883809F47BC0803919F080380F
:100BC00009F0B7CF80919C01803208F071C0E091AC
:100BD0009C0181E08E0F80939C018091BB00F0E02E
:100BE000E458FE4F80833DC0803B39F0E0F4803A0A
:100BF00009F479C0883A09F09CCF84E08093F4012D
:100C000010927B0110927A01E091A801F091A90164
:100C1000099580917A0181110FC081E080937A015A
:100C200010925A0109C0803C09F4A6CF883C09F40F
:100C3000A3CF883B09F07DCFE0917B0181E08E0F4F
:100C400080937B01F0E0E65AFE4F80818093BB00E9
:100C500090917B0180917A0129C08091EF0180936E
:100C6000BB0085EC8093BC0064CF9091F101809132
:100C7000F001981758F5E091F10181E08E0F809313
:100C8000F101F0E0E253FE4F8081E9CFE091F10104
:100C900081E08E0F8093F1018091BB00F0E0E25380
:100CA000FE4F80839091F1018091F0019817C8F276
:100CB00085E8D8CFE091F10181E08E0F8093F101BA
:100CC0008091BB00F0E0E253FE4F80838091F301FE
:100CD00081115CCF81E08093EE0184EA8093BC00B7
:100CE0001092F40126CF85EC8093BC001092F401A1
:100CF00080919C01803230F4E0919C01F0E0E45856
:100D0000FE4F108260919C0170E0E091A601F0918D
:100D1000A7018CE791E0099510929C010ACF1092EF
:100D2000F20134CFE7E1F2E01382128288EE93E021
:100D3000A0E0B0E084839583A683B78324E031E00C
:100D40003183208325EC30E03587248724EC30E0A4
:100D50003787268720EC30E0318B208B21EC30E088
:100D6000338B228B22EC30E0358B248B26EC30E069
:100D7000378B268B118E128E138E148EE4EBF2E0DD
:100D80001382128284839583A683B78386E191E0E0
:100D900091838083E0ECF2E01382128288E291E09A
:100DA000918380838CE084838FEF85838BE08683BF
:100DB00085E0878384E0808783E0818782E0828783
:100DC0001386148615861686178681E00C94850393
:100DD000789484B5826084BD84B5816084BD85B516
:100DE000826085BD85B5816085BD80916E00816022
:100DF00080936E00109281008091810082608093C8
:100E000081008091810081608093810080918000C9
:100E10008160809380008091B10084608093B100F4
:100E20008091B00081608093B00080917A008460EE
:100E300080937A0080917A00826080937A0080911A
:100E40007A00816080937A0080917A008068809334
:100E50007A001092C100E0912702F091280282E00E
:100E60008083E0912302F09124021082E091250218
:100E7000F09126028FEC808310922F02E0912B02DA
:100E8000F0912C0286E08083E0912902F0912A0201
:100E9000808180618083E0912902F0912A02808123
:100EA00088608083E0912902F0912A028081806825
:100EB0008083E0912902F0912A0280818F7D8083D6
:100EC00082E00E9485030E947D0310921502109219
:100ED00016021092AB011092CD011092F40181E044
:100EE0008093F3011092EE0161E082E10E94BC0167
:100EF00061E083E10E94BC018091B9008E7F809304
:100F0000B9008091B9008D7F8093B90088E4809307
:100F1000B80085E48093BC008DEA90E09093A9012D
:100F20008093A8018EEA90E09093A7018093A60198
:100F3000C1E098E4592ED5EE25EC722E00E010E0C9
:100F400032E0432E66246A94C093AA015092CC01E9
:100F50001092AB011092CD0160E084EB92E00E9410
:100F6000AF029091CD019132D0F58091F4018111C1
:100F7000FCCF4092F401C093F3016092F201109211
:100F8000F1019093F001ECEAF1E0AEECB1E09813DE
:100F9000E2C01092EF018091EF0180698093EF0130
:100FA0008091EE01813009F0DAC01092EE0180915B
:100FB000EF018093BB008091BC0083FDF8CF70925D
:100FC000BC008091F4018230E1F38091F2018F3F07
:100FD00031F08091F201803211F08091F201109293
:100FE000AB011092CD011092AA018091F401811100
:100FF000FCCFC093F401C093F3016092F201109210
:10100000F1011092F001C093EF018091EF0180692E
:101010008093EF018091EE01813009F0A3C010921E
:10102000EE018091EF018093BB008091BC0083FDB5
:10103000F8CF7092BC008091F4018130E1F380918F
:10104000F10191E0811102C09091F101AEECB1E0AB
:10105000E5EFF1E080E0891388C0109215028093DB
:10106000160260E080E00E94220460E371E080EC00
:1010700092E00E94370461E080E00E9422046091C7
:10108000160280911502681B770B80EC92E00E949B
:10109000460490911602809115029817F1F384EBA3
:1010A00092E00E946F027C016FE371E087E192E0C1
:1010B0000E943704B70187E192E00E9446046DE484
:1010C00071E087E192E00E94370461E080E00E94D5
:1010D000220462E571E080EC92E00E94370461E056
:1010E00087E00E942204B70180EC92E00E9446044F
:1010F0000E9408024B015C0188EEC82E83E0D82EC6
:10110000E12CF12C0E940802681979098A099B09CF
:10111000683E734081059105A8F321E0C21AD10809
:10112000E108F10888EE880E83E0981EA11CB11C2E
:10113000C114D104E104F10429F70E947D030115D3
:10114000110509F401CF0E941901882309F4FCCE8E
:101150000E940000F9CE21912D938F5F18CFD0937C
:10116000BC002FCFD093BC0066CF2D9121938F5F11
:1011700072CFA1E21A2EAA1BBB1BFD010DC0AA1F34
:10118000BB1FEE1FFF1FA217B307E407F50720F0F0
:10119000A21BB30BE40BF50B661F771F881F991F6B
:1011A0001A9469F760957095809590959B01AC01B4
:1011B000BD01CF010895EE0FFF1F0590F491E02DC2
:0611C0000994F894FFCF32
:1011C600000000004F01AF00DC009C010D01EB00A8
:1011D600FF0000000000AF028202DE025F02A600EE
:1011E6006F026002000000003104AF00DE022D0233
:1011F6004D616465206279204D6F736963680054A0
:10120600656D70657261747572653A200020C2B0B2
:0A121600430074656D70203A00007B
:107E0000112484B714BE81FFF0D085E080938100F7
:107E100082E08093C00088E18093C10086E0809377
:107E2000C20080E18093C4008EE0C9D0259A86E02C
:107E300020E33CEF91E0309385002093840096BBD3
:107E4000B09BFECF1D9AA8958150A9F7CC24DD24C4
:107E500088248394B5E0AB2EA1E19A2EF3E0BF2EE7
:107E6000A2D0813461F49FD0082FAFD0023811F036
:107E7000013811F484E001C083E08DD089C08234E0
:107E800011F484E103C0853419F485E0A6D080C0E4
:107E9000853579F488D0E82EFF2485D0082F10E0AE
:107EA000102F00270E291F29000F111F8ED06801E7
:107EB0006FC0863521F484E090D080E0DECF843638
:107EC00009F040C070D06FD0082F6DD080E0C81688
:107ED00080E7D80618F4F601B7BEE895C0E0D1E017
:107EE00062D089930C17E1F7F0E0CF16F0E7DF06D8
:107EF00018F0F601B7BEE89568D007B600FCFDCFD4
:107F0000A601A0E0B1E02C9130E011968C91119780
:107F100090E0982F8827822B932B1296FA010C0160
:107F200087BEE89511244E5F5F4FF1E0A038BF0790
:107F300051F7F601A7BEE89507B600FCFDCF97BE46
:107F4000E89526C08437B1F42ED02DD0F82E2BD052
:107F50003CD0F601EF2C8F010F5F1F4F84911BD097
:107F6000EA94F801C1F70894C11CD11CFA94CF0C13
:107F7000D11C0EC0853739F428D08EE10CD085E9AC
:107F80000AD08FE07ACF813511F488E018D01DD067
:107F900080E101D065CF982F8091C00085FFFCCF94
:107FA0009093C60008958091C00087FFFCCF809118
:107FB000C00084FD01C0A8958091C6000895E0E648
:107FC000F0E098E1908380830895EDDF803219F02E
:107FD00088E0F5DFFFCF84E1DECF1F93182FE3DFCA
:107FE0001150E9F7F2DF1F91089580E0E8DFEE27F6
:047FF000FF270994CA
:027FFE00040479
:0400000300007E007B
:00000001FF
